:100000000C94EB000C9413010C9413010C94130149
:100010000C9413010C9413010C9413010C94130110
:100020000C9413010C9413010C94B0170C941F182A
:100030000C9413010C9413010C9413010C941301F0
:100040000C9413010C9413010C9413010C941301E0
:100050000C9413010C9413010C9413010C94661767
:100060000C9413010C9413010C9413010C941301C0
:100070000C9413010C9413010C9413010C941301B0
:100080000C9413010C9413010C9413010C941301A0
:100090000C9413010C9413010C9413010C94130190
:1000A0000C9413010C9413010C9413016364696E96
:1000B0006F70737578585B00080B00020202000035
:1000C00009040000010202000005240010010524BB
:1000D000010101042402060524060001070581032D
:1000E00010004009040100020A0000000705020296
:1000F00040000007058302400000040309041201C8
:100100000002EF0201404123368000010102030199
:1001100041726475696E6F204C4C43004172647586
:10012000696E6F204C656F6E6172646F0000000035
:100130000200090F0000030401000C000000000091
:1001400000000000000000000000000000000000AF
:10015000250028002B002E003100000000002400A4
:1001600027002A002D0030000404040404030405C1
:100170000202020204030202020206060606060644
:10018000040402020204040408020110408040102A
:1001900020408040800802040180402010020110AD
:1001A00080102040402005010902A10185010509B8
:1001B000190129081500250195087501810205011D
:1001C0000930093109381581257F750895038106A5
:1001D000C000481B222111241FBECFEFDAE0DEBF92
:1001E000CDBF23E0A2EEB1E001C01D92A937B20756
:1001F000E1F711E0A0E0B1E0E0E2FDE402C005902B
:100200000D92A23EB107D9F710E0CAEED0E004C0CB
:100210002197FE010E946921C93ED107C9F70E94BA
:10022000031D0C9483260C9400008CBD9DBD089585
:1002300090E0FC01E957FE4F249188599E4FFC0144
:100240008491882399F090E0880F991FFC01E65A69
:10025000FE4FA591B491FC01E45BFE4F8591949112
:100260008FB7F894EC91E22BEC938FBF0895FC01CB
:1002700080910B02882311F13FB7F89482E08093BC
:10028000E9002091F200822F90E01816190614F46C
:1002900081E090E0882339F0289844E640930A02F0
:1002A0004091F1004083222339F02091F200211186
:1002B00003C02BE62093E8003FBF08958FEF9FEF28
:1002C0000895CF93DF93FC01818190916102482FC3
:1002D000490F5527551F483051059CF5A281B38120
:1002E000109709F52DE532E0338322832081209396
:1002F0005F028093600280916202820F808320916E
:100300006302A22FB09164028A2F821B8917E8F43E
:1003100081813D91C82FD0E0CD5EDE4F38838F5F65
:100320008183F2CFD90118962D913C91199721150F
:100330003105C1F72DE532E019963C932E931897BD
:10034000D5CF80E0DF91CF91089581E0FBCF3FB71B
:10035000F8948091060290910702A0910802B09152
:10036000090226B5A89B05C02F3F19F00196A11DD3
:10037000B11D3FBFBA2FA92F982F8827BC01CD01EF
:10038000620F711D811D911D42E0660F771F881F4E
:10039000991F4A95D1F708958F929F92AF92BF927D
:1003A000CF92DF92EF92FF924B015C010E94A70176
:1003B0006B017C010E94A7016C197D098E099F09C0
:1003C000683E734081059105A8F321E0821A9108E7
:1003D000A108B10888EEC80E83E0D81EE11CF11C0C
:1003E00081149104A104B10429F7FF90EF90DF90EC
:1003F000CF90BF90AF909F908F9008952FB7F894B3
:1004000060910202709103028091040290910502B2
:100410002FBF08954091F1015091F2012091EF0119
:100420003091F00142175307B4F49091E8009570B1
:10043000E1F39091E80092FD19C08093F100809162
:10044000F1019091F20101968F739927892B19F48C
:100450008EEF8093E8008091F1019091F201019676
:100460009093F2018093F10181E0089580E0089576
:10047000DF92EF92FF920F931F93CF93DF93D82ECB
:100480008A01EB017B01E40EF51ECE15DF0559F064
:10049000D7FE12C0FE0184910E940A0221968111AA
:1004A000F4CF0FEF1FEFC801DF91CF911F910F9194
:1004B000FF90EF90DF9008958881EECF2FB7F894EA
:1004C00087708093E9009091E800892F807295FFF2
:1004D00004C09091F20080E4891B2FBF08957F92A1
:1004E0008F929F92AF92BF92CF92DF92EF92FF9244
:1004F0000F931F93CF93DF93C82E8B017A018091C6
:100500000B02811110C08FEF9FEFDF91CF911F91F0
:100510000F91FF90EF90DF90CF90BF90AF909F90A2
:100520008F907F9008958091F50180FF05C08091A4
:10053000E00082608093E000CE2DDF2DD12C8AEF89
:10054000B82E8C2D8770982E8C2D8072882E8C2D35
:100550008074782E9AE3A92E209719F4DD2009F4EF
:1005600052C08C2D0E945E0281110AC0BA94BB2039
:1005700051F261E070E080E090E00E94CC01ECCFAD
:100580008C171D0611F00CF08C2F9FB7F8949092E9
:10059000E9002091E80025FD02C09FBFDDCF282F94
:1005A00030E0C21BD30B882029F08150A0F01092BC
:1005B000F100FBCFF801C7FC0AC0815050F0419117
:1005C0004093F100FACF44914093F100319681506D
:1005D000D0F7020F131FDD2021F0A092E800D12CEC
:1005E000DCCF8091E80085FD07C0A092E800DD2403
:1005F000D394209791F2F3CF209779F6772069F280
:10060000A092E800CACF5D9884E68093F401C70108
:100610007CCF615030F02091F100FC0120830196E5
:10062000F8CF289884E680930A0208958091E70124
:1006300081110DC082E08093E30184E08093E401A6
:100640001092E6011092E50181E08093E70183EECC
:1006500091E008950F931F93CF93DF931F92CDB72F
:10066000DEB782E0898342E450E068EB70E080E826
:100670000E9438020E941603DC0112960D911C9113
:100680000115110589F0D801ED91FC910280F381EB
:10069000E02DBE016F5F7F4FC801099597FD04C033
:1006A000F80100851185ECCF89810F90DF91CF9102
:1006B0001F910F910895CF93DF93EC0180910B016F
:1006C000882331F083E00E946F021816190634F077
:1006D00081E090E09B838A8380E090E0DF91CF917E
:1006E0000895CF93DF931F92CDB7DEB76983DC0106
:1006F000ED91FC910280F381E02D41E050E0BE01DC
:100700006F5F7F4F09950F90DF91CF91089583E040
:100710008093E9008091F200882319F08AE38093A6
:10072000E800089583E00E945E0290E00895CF9370
:10073000DF931F92CDB7DEB7FC018485958597FDC9
:1007400008C02FEF3FEF358724870F90DF91CF91BF
:100750000895CE0101960E943701019719F489810D
:1007600090E0F3CF8FEF9FEFF0CF0F931F93CF93D6
:10077000DF931F92CDB7DEB78C01FC018485958590
:1007800097FF0BC0CE0101960E943701019771F4CB
:10079000898190E0F80195878487F80184859585A3
:1007A0000F90DF91CF911F910F9108958FEF9FEFE1
:1007B000F1CFFC018485958597FD0BC09FB7F89418
:1007C00082E08093E9008091F2009FBF90E0019663
:1007D00008959FB7F89482E08093E9008091F20039
:1007E0009FBF90E00895DC01FB0112962C911297B7
:1007F000848195812817190641F491818081813A7D
:1008000031F49D7F81E0913009F080E008958132DC
:10081000E1F79B3029F482811F968C9381E0089543
:100820009A3099F7828150968C93F8CFDC01FB01C6
:1008300088E4808389E4818384E482831D969C918B
:100840001D979F709F5B93831D968D919C9124E0D3
:10085000969587952A95E1F78F708F5B848385E065
:100860000895EF92FF920F931F93CF93DF93FB01B5
:100870002081213871F52381223259F5DC0112964D
:100880004C91248135814217130619F5EC010B8533
:100890001C85F12CE12C0115110589F0F80144812A
:1008A00055816281738180E80E9438028F3F9807EA
:1008B00049F0E80EF91ED8010D911C91ECCF81E0B2
:1008C0008F87C701DF91CF911F910F91FF90EF901C
:1008D000089590E080E0F6CFCF93DF93CDB7DEB7F9
:1008E00069970FB6F894DEBF0FBECDBFFC01DB01E8
:1008F0008C918F5F8C939E012D5F3F4F8DE0D901CE
:100900001D928A95E9F729E0298384E08A8391E0A2
:100910009D8383E08E832A8721E22B879C879D8796
:100920009F8722E2288B27E02B8B25E02C8B8E8B58
:1009300020E430E0388F2F8B998F82818B839585CF
:100940008685998B8A8B838180688D8B49E150E005
:10095000BE016F5F7F4F80E00E94380269960FB63C
:10096000F894DEBF0FBECDBFDF91CF910895CF9237
:10097000DF92EF92FF921F93CF93DF931F92CDB739
:10098000DEB77B016A0180916E0281112AC011E0FD
:10099000109361021093620287E692E090936402E2
:1009A00080936302109266021092650282E491E0E5
:1009B00090935E0280935D02109269021092680229
:1009C00010926B0210926A0210936C0210936D02E7
:1009D00081EC809367020E9416030E9461011093CC
:1009E0006E0281E0898341E050E0BE016F5F7F4F7E
:1009F000809160020E946F0297FD07C080916002A3
:100A0000A601B70180640E946F020F90DF91CF9121
:100A10001F91FF90EF90DF90CF900895CF93DF93D9
:100A200000D000D0CDB7DEB79091860299838A833B
:100A30006B834C8344E050E0BE016F5F7F4F84E8DE
:100A400092E00E94B7040F900F900F900F90DF91EB
:100A5000CF9108959091860280958923981739F057
:100A60008093860240E060E080E00C940E050895DB
:100A700090918602892B981739F08093860240E086
:100A800060E080E00C940E050895CF93DF93EC01B5
:100A90008A819B81DC01ED91FC910480F581E02D40
:100AA0006A8509958A85813439F4EA81FB81EA589F
:100AB000FF4F8081846080831A861B861C861D867A
:100AC0001E861F86188A80E0DF91CF91089581E00D
:100AD000693009F080E00895FC01828508950F9344
:100AE0001F93CF93DF93FC018B01EA0180819181F9
:100AF000892B31F19281992349F128813981232B66
:100B0000F9F0D8012D913C91D9014C918381682F46
:100B1000691B770B80819181860F971FDC014C93B5
:100B2000828181508283888199810197998388830A
:100B3000D8018D919C91119701968D939C93DACF5A
:100B400080E0DF91CF911F910F910895838182837F
:100B500081E0F7CF3F924F925F926F927F928F9298
:100B60009F92AF92BF92CF92DF92EF92FF920F933C
:100B70001F93CF93DF9300D000D0CDB7DEB76C01C9
:100B80007A8369835C834B8384E0482E360182E15B
:100B9000680E711C93E0392E5601A7E0AA0EB11C15
:100BA00012E0552453944601B0E18B0E911C29812B
:100BB0003A812115310509F4CBC0F60180A18230BC
:100BC000F1F0A8F5882309F457C0813091F7AE0100
:100BD0004F5F5F4FBE016D5F7F4FC5010E946F0584
:100BE000882309F4B5C0D6011596ED91FC911697AE
:100BF000808191968C939197818192968C93F60146
:100C00007682658230A2D60192968C91929784303A
:100C100011F493961C92F60181A182508483258160
:100C20003681308727838287818740A205C0833041
:100C300051F3843009F0BDCFD60192968C919297F2
:100C4000843019F1853009F44CC0823009F073C04A
:100C5000AE014F5F5F4FBE016D5F7F4FC5010E94C8
:100C60006F05882309F474C0F601858984A3F60111
:100C70009682858210A29BCF14838581968190876E
:100C800087831287118750A2A2CFAE014F5F5F4FBB
:100C9000BE016D5F7F4FC5010E946F05882309F477
:100CA00057C0D60155968C915597833001F7989689
:100CB0008C9198978111DBCF93965C929397529683
:100CC0008C91529796968C93969753968C915397B6
:100CD00097968C93979757968C91579795968C9358
:100CE000C6CFAE014F5F5F4FBE016D5F7F4FC50145
:100CF0000E946F05882361F1F60183A1882309F41E
:100D0000B6CF82819381009709F4B1CFDC01ED91D8
:100D1000FC910190F081E02D7401D60195960C9123
:100D2000959797962C91979796964C91969794961F
:100D30006C9109959CCFF60185858823F9F0813067
:100D400041F1D6011E968D919C91892B09F48FCF8C
:100D50000F900F900F900F90DF91CF911F910F91F7
:100D6000FF90EF90DF90CF90BF90AF909F908F90CB
:100D70007F906F905F904F903F90089591968C91E7
:100D800091978250990B1F969C938E931E971D9658
:100D90005C9229813A818B819C81782F692FF601A1
:100DA000468557854115510581F00196211531057C
:100DB00039F0415051095787468721503109EDCF0D
:100DC0007B836C831A821982BCCF9C838B833A838A
:100DD00029831586B6CFCF93DF93EC018C819D815B
:100DE000DC01ED91FC910480F581E02D6E81099587
:100DF00081E08E8F1E821F8E18A219A21AA21CA239
:100E000080E0DF91CF910895FC01DC01A65ABF4F2D
:100E10008C918823A1F08781681741F0828521E0B9
:100E200030E0681729F090E080E0089530E020E09D
:100E3000C901880F991F820F931FE80FF91F808542
:100E400091850895FC018781811104C08085918579
:100E5000892B59F08285811106C08385948521E014
:100E600030E0892B21F080E0089530E020E0C901D6
:100E7000880F991F820F931FE80FF91F678351870F
:100E8000408781E008950895DF92EF92FF920F93DB
:100E90001F93CF93DF93EC0185E0E62EF12CFE014A
:100EA000869FE00DF11D1124908596FF24C0192F17
:100EB000177001E085E0D82E8FEF800F8F3008F09B
:100EC00001E0602F70E0062FD69EF001D79EF00D56
:100ED0001124EC0FFD1F8085869586958695877079
:100EE000181701F16F5F7F4F603168F38D818113B7
:100EF00002C011501D8385E08E9DF0018F9DF00D85
:100F00001124EC0FFD1F108681E081871286229646
:100F1000D783C683DF91CF911F910F91FF90EF9000
:100F2000DF900895CE010E944407C6CFFC012081C6
:100F30002EBD9B012150310941F051810DB407FEB6
:100F4000FDCF4EB55EBD4193F5CF61507109860F5F
:100F5000971F0DB407FEFDCF2EB5FC012083089529
:100F6000FC0121E0613499F49C01255B3F4F61E075
:100F7000AC014E5F5F4F158666871786548743879F
:100F800035962E173F07B9F7FC0115820895358570
:100F9000631729F02F5F35962031C9F70895622F26
:100FA0000C944407CF93DF93FC0167FD12C02830F7
:100FB00080F4442319F08581873059F0EF01A1E0D6
:100FC000B0E08D85882349F111962596A031B105B1
:100FD000C1F780E018C085E08A9FE0018B9FD00DAB
:100FE0001124CE0FDF1F442389F081E48887858197
:100FF0008F5F858325E02A9FC0012B9F900D1124D0
:10100000E80FF91F8085DF91CF91089581E08887EF
:10101000F1CF2770687B622B0FC06623E1F2677007
:10102000660F660F660F4423A1F3606485818F5FAE
:1010300085838770687F682B25E02A9FC0012B9FDE
:10104000900D1124E80FF91F6087862FDCCFFC017B
:1010500021E0611102C0069608953585631739F0C5
:101060002F5F35962031C9F790E080E0089506960D
:1010700035E0239F800D911D112408950F931F9338
:10108000CF93DF932115310599F0E901042F162F35
:101090000E942708FC0186ED309729F01283D18346
:1010A000C083038380E0DF91CF911F910F9108955A
:1010B00088EDF9CF2E9808952E9A08958DE092E04C
:1010C0000E94D903892B29F08DE092E00E949703BA
:1010D000F5CF0895CF92DF92EF92FF920F931F9377
:1010E000CF93DF934111CFC0283009F0CCC0F80175
:1010F000EC01E080F380C480D580068117818A816D
:10110000E0FE97C0811105C081E00E94380581E0B2
:101110008A838B81E1FE95C0811105C082E00E9427
:10112000380581E08B838C81E2FE93C0811105C07C
:1011300084E00E94380581E08C838D81E3FE91C0BC
:10114000811105C088E00E94380581E08D838E8181
:10115000E4FE8FC0811105C080E10E94380581E066
:101160008E834091FE015091FF012091FC0130914E
:10117000FD01C114D10461F40115110549F4F11008
:1011800007C04115510521F42115310509F47BC033
:10119000C601DD0CAA0BBB0B052E000C660B770BF2
:1011A000840F951FA61FB71F81384FEF9407A40720
:1011B000B4070CF466C080389105A105B10524F090
:1011C0008FE790E0A0E0B0E0A801110F660B770B6D
:1011D0008901330F220B330B040F151F261F371FF6
:1011E00061E801389FEF19072907390754F00038E3
:1011F00011052105310524F00FE710E020E030E073
:10120000602F40E8F41202C091E8F92E1092FF011D
:101210001092FE011092FD011092FC014F2DDF9102
:10122000CF911F910F91FF90EF90DF90CF900C9492
:101230000E05882309F46DCF81E00E942A051A82E9
:1012400068CF882309F46FCF82E00E942A051B82B1
:101250006ACF882309F471CF84E00E942A051C829A
:101260006CCF882309F473CF88E00E942A051D8281
:101270006ECF882309F475CF80E10E942A051E8273
:1012800070CF81E8A1CFDF91CF911F910F91FF9097
:10129000EF90DF90CF900895EF92FF920F93FC01B3
:1012A000368D323018F0348D361302C00E94841A05
:1012B0000F91FF90EF900895EF92FF920F93029796
:1012C0000E944C090F91FF90EF9008950895EF92BE
:1012D000FF920F931F93422F202F8701DC01ED9186
:1012E000FC9100A0F1A1E02D09951F910F91FF90B5
:1012F000EF90089581E00895FC0184A10895FC0118
:101300008681089580E0089581E0089580E0089541
:1013100080E00895089580E0089508950F931F9345
:10132000CF93DF93D82FC62F8A0180E591E00E94EA
:1013300015010E945A08D260DEBDF8018C2F882367
:1013400039F00DB407FEFDCF91919EBD8150F7CFCE
:10135000C00FD12FD11D0DB407FEFDCF0E945C0838
:10136000CE01DF91CF911F910F9108950F931F939D
:10137000CF93DF9300D0CDB7DEB7182F062F80E5CF
:1013800091E00E9415010E945A08126019830A8395
:1013900062E070E0CE0101960E9496070E945C0810
:1013A0000F900F90DF91CF911F910F9108959F9211
:1013B000AF92BF92CF92DF92EF92FF920F931F9363
:1013C000CF93DF936C01C42FD22F99249394E62EF0
:1013D000F12CEE0CFF1CE80EF91E86E5E80EF11C60
:1013E000A42EB12CABE2AA0EB11CAA0CBB1CAC0CF7
:1013F000BD1CF70180819181DC01ED91FC9102809F
:10140000F381E02D202F4D2F6C2F0995182F803E52
:10141000C9F5C1112BC061E088EE0E94B60966E6ED
:1014200070E080E090E00E94CC01F7018081918122
:10143000DC01ED91FC910190F081E02D202F4D2FEA
:101440006C2F0995182F8D30D1F58FEF890D8330D2
:10145000F8F0C11137C061E088EE0E94B60966E677
:1014600070E080E090E00E94CC011CC0F50180811A
:101470009181DC01ED91FC910284F385E02D6D2FCB
:101480000995D3CF8D3061F48FEF890D833050F4FF
:1014900064E670E080E090E00E94CC019394A9CFD4
:1014A000882319F2812FDF91CF911F910F91FF9027
:1014B000EF90DF90CF90BF90AF909F9008958823DA
:1014C00089F3C7CF8C2F90E08B96880F991F8C0DD6
:1014D0009D1DFC0180819181DC01ED91FC910284D4
:1014E000F385E02D6D2F0995DDCF8EBD00000DB485
:1014F00007FEFDCF8EB50895CF93C82F80E591E00C
:101500000E9415010E945A088C2F0E94750A80E0E3
:101510000E94750AC82F0E945C088C2FCF910895F5
:101520008F929F92AF92BF92CF92DF92EF92FF92F3
:101530000F931F93CF93DF93882E962E5A010E940C
:10154000FE016B017C0128E8C20E23E1D21EE11CE2
:10155000F11C10E000E0D0E0C0E098280E94FE01FD
:101560006C197D098E099F0997FF1EC0692D80EFB8
:101570000E94B6090E94FE016C197D098E099F091F
:1015800097FF09C088EC0E947C0A87FFF3CF60E8D0
:1015900088EC0E94B60988EF0E947C0AC82FCF70A1
:1015A000C43081F0CE30B9F08C2FDF91CF911F91F4
:1015B0000F91FF90EF90DF90CF90BF90AF909F90F2
:1015C0008F9008950F5F1F4FA114B10439F20A15CF
:1015D0001B0521F6E9CFDF5FD33009F0BFCFE4CFA1
:1015E000AF92BF92CF92DF92EF92FF920F931F9331
:1015F000CF93DF93EC01B62EA42E69010E94270839
:101600007C0186EDE114F10409F447C0D701ED91A6
:10161000FC91119787ED309709F43FC013969C9188
:1016200080E0981731F02081A21629F033968F5F61
:10163000F8CFF0E0E0E0D601ED93FC938BED30972E
:1016400061F1228126952695203108F02FE081E076
:1016500090E0A0E0B0E004C0880F991FAA1FBB1F54
:101660002A95D2F70197F801918380836B2D80EE44
:101670000E94B60988ED0E947C0AD70114969C91BD
:10168000682F697F992329F0CA58DF4F688162600B
:10169000682B88ED0E94B60980E0DF91CF911F9101
:1016A0000F91FF90EF90DF90CF90BF90AF90089593
:1016B00088EF0E947C0A807C8034B1F018F4882383
:1016C00001F10895803819F0803CC9F0089588ED43
:1016D0000E947C0A81FD0DC069EC88ED0E94B6096C
:1016E00082E080930C02089588ED0E947C0A81FDBF
:1016F000F3CF6BEC88ED0E94B60983E0F2CF81E076
:10170000F0CF61ED88ED0E94B60910920C020895A9
:101710002F923F924F925F926F927F928F929F9201
:10172000AF92BF92CF92DF92EF92FF920F931F93EF
:10173000CF93DF937B013A016901F901A080B18069
:10174000FB013180F90111821082FB01828160E18D
:1017500081FD60E288EE0E94B6092A2CA301F70100
:10176000608180E00E94900A582EF6E08F1310C02E
:1017700088EF0E947C0AF70192819D7F84FF92602E
:10178000928360E191FD60E288EE0E94B609E6CFA7
:10179000811150C088EC0E947C0A82FF5FC080E308
:1017A0000E947C0A482E8A151B0411F008F0422C76
:1017B000F60180819181E501C81BD90BD7FF02C0DA
:1017C000D0E0C0E0842C912C8C169D060CF4E40132
:1017D00080E591E00E9415010E945A0888E00E946D
:1017E000750AAE0170E060E0C8010E945F23209797
:1017F00021F0BE01C8010E9496070C0F1D1F0E9418
:101800005C0864E088EC0E94B609F6018081918151
:10181000880E991E91828082431420F08A149B04C2
:1018200008F49CCF88EF0E947C0AF701928184FB28
:1018300091F99283852DDF91CF911F910F91FF90A8
:10184000EF90DF90CF90BF90AF909F908F907F9060
:101850006F905F904F903F902F90089580EF582E9B
:10186000E9CFAF92BF92CF92DF92EF92FF920F93A8
:101870001F93CF93DF9300D000D0CDB7DEB77C01AC
:10188000690158011C821B821A8219828E010F5F26
:101890001F4F9E012D5F3F4F0E94F00A811109C02A
:1018A00049815A816B817C8185019601C7010E9423
:1018B000880B0F900F900F900F90DF91CF911F9199
:1018C0000F91FF90EF90DF90CF90BF90AF90089571
:1018D0004F925F926F927F928F929F92AF92BF9240
:1018E000CF92DF92EF92FF920F931F93CF93DF93EC
:1018F000CDB7DEB7C254D1090FB6F894DEBF0FBE24
:10190000CDBFDC0194962C9121111AC0612C862D3B
:10191000CE5BDF4F0FB6F894DEBF0FBECDBFDF91B9
:10192000CF911F910F91FF90EF90DF90CF90BF90DC
:10193000AF909F908F907F906F905F904F900895A1
:101940007C010E94FE01F701878C90A0A1A0B2A0AB
:10195000681979098A099B0997FDD8CF0E94FE0171
:10196000D70193962C91620F711D811D911DF70176
:10197000678F70A381A392A3712C6E01F1E4CF0E47
:10198000D11C30E4832E912C57018AE5A80EB11C9E
:10199000D7015D968C91781608F0B8CFE72DF0E06E
:1019A0007296EE0FFF1FEE0FFF1FEE0DFF1D8081E1
:1019B000E82FF0E0CF01880F991FDC01AE0FBF1FA9
:1019C000AE0DBF1D96962C9130E0D6012D933C9321
:1019D000DE0111962D011D92AC15BD05E1F7E80F52
:1019E000F91FEE0DFF1D8201960145A1F7016681E9
:1019F000848195810E94310C682E811188CFD60197
:101A00008D919C9111978134910510F08D929C924B
:101A1000D701ED91FC9100A0F1A1E02D8201D6014A
:101A20002C91D5014C91B701C7010995D701ED91D2
:101A3000FC910288F389E02DD5018C918111698098
:101A4000662DC7010995009769F0DC01ED91FC91C5
:101A50000190F081E02D8201D6012C91D5014C91AD
:101A6000B7010995739494CF3F924F925F926F9212
:101A70007F928F929F92AF92BF92CF92DF92EF921E
:101A8000FF920F931F93CF93DF93CDB7DEB7C2546E
:101A9000D1090FB6F894DEBF0FBECDBFDC0194961E
:101AA0002C91222309F4A1C06C010E94FE01F601D1
:101AB000878C90A0A1A0B2A0681979098A099B0916
:101AC00097FD93C00E94FE01D60193962C91620F60
:101AD000711D811D911DF601678F70A381A392A3D3
:101AE000312C5E01F1E4AF0EB11C46018AE5880E8F
:101AF000911CD6015D968C91381608F076C0E32DC6
:101B0000F0E07296EE0FFF1FEE0FFF1FEC0DFD1DB4
:101B10006080662009F467C0712C7301EE0CFF1C15
:101B2000F701E60DF71DEC0DFD1D86A190E0F50116
:101B300091838083FE0131962F011192EA15FB05F6
:101B4000E1F7F701E60DF71DEC0DFD1D8201950192
:101B500045A1D60116966C91169714968D919C917D
:101B60000E94310C182F81113EC0F50180819181B6
:101B70000097C9F18134910520F080E490E09183D1
:101B80008083E60CF71CD601AE0DBF1DF6018081E7
:101B90009181FC01608C718C7201F5010081F4016E
:101BA000208195964C91B601C601F3010995D601A5
:101BB000ED91FC910288F389E02DD4018C91811183
:101BC0001981612FC6010995009769F0DC01ED913B
:101BD000FC910190F081E02D8201D5012C91D4017E
:101BE0004C91B6010995339484CF80E0CE5BDF4FF2
:101BF0000FB6F894DEBF0FBECDBFDF91CF911F911E
:101C00000F91FF90EF90DF90CF90BF90AF909F909B
:101C10008F907F906F905F904F903F9008952F929C
:101C20003F924F925F926F927F928F929F92AF926C
:101C3000BF92CF92DF92EF92FF920F931F93CF93B9
:101C4000DF93CDB7DEB766970FB6F894DEBF0FBE51
:101C5000CDBF3C01442E322E202EEA8ACE8AEBA440
:101C6000FCA4CDA4DEA41E861D86188A1F868E01C4
:101C7000015F1F4F9E01235F3F4F0E94F00A582EC5
:101C800081113BC139822A822A892B833E893C8378
:101C9000BE82AD8298868F82AE014F5F5F4F68E053
:101CA00080E20E948E094F855889642D80E10E9450
:101CB000900A811140C1C114D10409F453C00D85AB
:101CC0001E85D80112968C91129737FE51C0826002
:101CD00012968C93540122242394A114B10409F484
:101CE0002FC1FC86EB864F8558896D857E858601E0
:101CF0009E01255F3F4FC3010E94880B582EB6E01E
:101D00008B130EC088EF0E947C0AED85FE8585FB53
:101D1000882780F98225928180FB91F99283DDCF1B
:101D20008111EBC0EFA5F8A93097A1F06B857C85F8
:101D30000190F081E02D0190F081E02DC4018A191D
:101D40009B099A8789879E01275F3F4FA6018FA530
:101D500098A909958B859C85A81AB90A8E159F05A7
:101D600008F0BBCF4F85588937FEE1C080EAE0C05C
:101D7000816012968C93129711968C908FEF880D3C
:101D8000803408F0DAC02F8438880E94FE019B015D
:101D9000AC0128573C4E4F4F5F4F2A8B3B8B4C8BEF
:101DA0005D8BD80112968C9160E880FF60E488EE2C
:101DB0000E94B609512C912CE114F10409F48CC055
:101DC0003401E814F90408F437016E8AA601662D7F
:101DD00080E10E948E09662D88E30E94B609F80111
:101DE0006081606280EF0E94B60988EC0E947C0AE4
:101DF00087FFFBCF60E888EC0E94B60988EF0E945D
:101E00007C0A8F70582E198AB12CA12C552021F1F3
:101E10000E94FE012A893B894C895D89621B730BF4
:101E2000840B950B97FF18C036E0531609F440C099
:101E30004EE05416B1F054E0551209C08FEFA81AC5
:101E4000B80A2114310491F02A143B0479F460E0BB
:101E500088E30E94B60942C0E618F708C60CD71CF2
:101E6000ABCF99899F5F998B933089F360E088E3CA
:101E70000E94B609D6016C9180E10E94B6096E8974
:101E800088E30E94B609F8016081606280EF0E94D9
:101E9000B60988EC0E947C0A87FFFBCF60E888ECDB
:101EA0000E94B60988EF0E947C0A8F70582EAECF30
:101EB00088EF0E947C0A85FB882780F9A1E08A27A9
:101EC000F801928180FB90F9928360E890FF60E4D2
:101ED00088EE0E94B609CACF5110B9CF88EF0E9490
:101EE0007C0AD80112969C91129785FB90F9129664
:101EF0009C934F8558895520D1F0852D66960FB655
:101F0000F894DEBF0FBECDBFDF91CF911F910F912F
:101F1000FF90EF90DF90CF90BF90AF909F908F9009
:101F20007F906F905F904F903F902F90089580E842
:101F3000642D0E94900A582EE0CF8AED582EDDCFF6
:101F40004F855889552009F411CFD7CF8F929F9292
:101F5000AF92BF92CF92EF920F93CF931F921F92A7
:101F60001F921F921F921F92912C812CB12CA12C99
:101F7000C12CE62E05E020E040E060E00E940F0E5C
:101F8000C82F6CE271E080E090E00E94CC010F90DD
:101F90000F900F900F900F900F908C2FCF910F916B
:101FA000EF90CF90BF90AF909F908F9008958F92B9
:101FB0009F92AF92BF92CF92EF920F931F921F9278
:101FC0003F932F935F934F934A01B12CA12CCC24C4
:101FD000C394E12C06E020E840E00E940F0E0F9031
:101FE0000F900F900F900F900F900F91EF90CF9058
:101FF000BF90AF909F908F9008952F923F924F92F5
:102000005F926F927F928F929F92AF92BF92CF9288
:10201000DF92EF92FF920F931F93CF93DF93CDB791
:10202000DEB767970FB6F894DEBF0FBECDBF1B8A31
:1020300038E03C8B3CE33D8B8A3F3FEF9307D9F47C
:1020400006ED802F67960FB6F894DEBF0FBECDBFAA
:10205000DF91CF911F910F91FF90EF90DF90CF9084
:10206000BF90AF909F908F907F906F905F904F90B8
:102070003F902F900895122F342E462E7C01DC01C4
:102080001696CD90DC901797CE01439617969C93A9
:102090008E9316971A962C939E012F5F3F4F42E125
:1020A00050E060E0C7010E94D70F582EF701D78299
:1020B000C682082F8111C5CF89849A846B847C8461
:1020C000FD81FE8B3E813F8B670186E5C80ED11CEA
:1020D0005601212CD5018D919C910097F1F5239407
:1020E000B2E0AB0EB11CE0E12E12F4CFF60180811C
:1020F0009181009709F070C05394F2E0CF0ED11C8B
:1021000030E15312F3CFF7018681978107ED892BD8
:1021100009F497CF1287232D40E0642DC7010E9458
:10212000D207D82E04ED882309F48BCF682FC7017E
:102130000E942708009709F483CFDC0114961C93B2
:102140006D2DC7010E94A60F082F882309F479CFAF
:102150006D2DC7010E94B00774CFDC01ED91FC9199
:102160000084F185E02D09958111B9CFF5018081B9
:102170009181DC01ED91FC910088F189E02D6F895E
:102180000995882309F4ABCFF50180819181DC01A9
:10219000ED91FC910484F585E02DA301B40109952E
:1021A000882361F0012F232D442D622DC7010E9449
:1021B000D709082F813D09F492CF43CFF5018081E3
:1021C0009181DC01ED91FC910684F785E02D6E890B
:1021D00009958111E7CF83CFDC01ED91FC9100845B
:1021E000F185E02D0995811187CFF60180819181DC
:1021F000DC01ED91FC910088F189E02D6F89099552
:1022000081110DC0012F232D442D652DC7010E9482
:10221000D709082F877F813D09F013CF6DCFF601D5
:1022200080819181DC01ED91FC910484F585E02DA4
:10223000A301B401099581115FCFF60180819181DD
:10224000DC01ED91FC910684F785E02D6E890995FE
:102250008823C1F251CF8F929F92AF92BF92CF92BB
:10226000EF920F931F931F921F921F930F935F93F1
:102270004F934A01B12CA12C32E0C32EE22E06E08E
:1022800020E840E00E940F0E0F900F900F900F90EB
:102290000F900F901F910F91EF90CF90BF90AF9044
:1022A0009F908F9008958F929F92AF92BF92CF92FE
:1022B000EF920F93A42EB12C1F921F921F921F9288
:1022C0001F921F92912C812CC12CE62E01E023E25B
:1022D00040E0FC016285828193810E940F0E0F9085
:1022E0000F900F900F900F900F900F91EF90CF9055
:1022F000BF90AF909F908F9008958F929F92AF92D2
:10230000BF92CF92EF920F93A62EB12C1F921F92E5
:102310005F934F931F9224E02F9324E0822E912C01
:10232000C12CE12C00E023EA40E0FC0162858281BF
:1023300093810E940F0E0F900F900F900F900F90AF
:102340000F900F91EF90CF90BF90AF909F908F9094
:1023500008958F929F92AF92BF92CF92EF920F9378
:10236000A42EB12C1F921F921F921F921F921F9298
:10237000912C812CC12CE62E03E023E240E0FC01ED
:102380006285828193810E940F0E0F900F900F90B3
:102390000F900F900F900F91EF90CF90BF90AF9054
:1023A0009F908F900895CF92DF92EF92FF921F93AC
:1023B000CF93DF93EC01162F7A01FA01808191818E
:1023C000A281B3818130F3E09F07F1E0AF07B1054F
:1023D000C9F170F48115E1E09E07AE07B10509F47B
:1023E00050C081309140A140B10561F180E041C011
:1023F000833021E0920720E1A207B10529F0833064
:102400009340A041B10591F7412F64E1CE010E94B4
:102410005311412F60E1CE010E94531164E170E03D
:1024200080E090E00E94CC016A85F7012181269529
:1024300021706770412F8A819B810E94FD0F10924D
:10244000E201D4CF8091E2018111D0CF412F61E12F
:10245000CE010E945311412F60E1CE010E94531121
:10246000412F64E0CE010E94A91181E08093E20136
:1024700081EBDF91CF911F91FF90EF90DF90CF9094
:102480000895462F61E1CE010E945311412F60E172
:10249000CE010E9453111092E2018A858770177055
:1024A000880F880F880F182B09F4A0CFEA80FB80D3
:1024B0006701F6E5CF0ED11CD0E0C0E0D6018D91CA
:1024C0009D916D010097C1F0DC01ED91FC910084BC
:1024D000F185E02D099518130FC0AB96CC0FDD1FC9
:1024E000CE0DDF1D88819981DC01ED91FC91048086
:1024F000F581E02D09957ACF2196C031D105F1F60D
:1025000075CFCF92DF92EF92FF920F931F93CF93ED
:10251000DF93CDB7DEB72E970FB6F894DEBF0FBEB0
:10252000CDBFFC012089211111C010E0812F2E9612
:102530000FB6F894DEBF0FBECDBFDF91CF911F91D4
:102540000F91FF90EF90DF90CF9008957C010E9453
:10255000FE01F7010485158526853785601B710B03
:10256000820B930B97FDE1CF81E090E09E878D87F2
:102570008E010F5F1F4F9E01235F3F4F41E0628539
:10258000828193810E94310C182F811121C082E039
:10259000D82E01E089818D2139F119861A861B8692
:1025A0001C86AE01475F5F4F602FC7010E947D11FF
:1025B000C82E811119C0AE01475F5F4F602FC70160
:1025C0000E94D311813B19F0882371F0C82E1C2D75
:1025D0000E94FE016C597F4F8F4F9F4FF701648718
:1025E000758786879787A2CFDD0C0F5F083091F63D
:1025F00001E0F7018385801758F319861A861B8638
:102600001C86AE01475F5F4F602FC7010E947D119E
:10261000D82E811117C089859A8587709170813075
:10262000914081F48B859C8581609C878B87AE016E
:10263000475F5F4F602FC7010E94D311813B29F094
:10264000811102C00F5FD5CFD82E1D2DC1CFCF92E3
:10265000DF92FF920F931F93CF93DF9300D000D0B0
:10266000CDB7DEB78C01F62E19821A821B821C822E
:10267000462F61E10E9453114F2D60E1C8010E9475
:1026800053114F2D64E0C8010E94A91183E0C82EA8
:10269000D12CAE014F5F5F4F6F2DC8010E947D119D
:1026A000811114C089819A81AB81BC819D7F833067
:1026B0009140A041B10551F064E670E080E090E007
:1026C0000E94CC0181E0C81AD10819F74F2D64E1AE
:1026D000C8010E9453114F2D60E1C8010E9453119F
:1026E00064E170E080E090E00E94CC010F900F90D8
:1026F0000F900F90DF91CF911F910F91FF90DF907E
:10270000CF9008952F923F924F925F926F927F9257
:102710008F929F92AF92BF92CF92DF92EF92FF92F1
:102720000F931F93CF93DF93CDB7DEB7E8970FB624
:10273000F894DEBF0FBECDBFDC011A963C9131117B
:102740002BC1922E242E362E3C01FC01E280F38018
:10275000D701ED91FC910190F081E02D60E0C7017F
:1027600009958C01009709F41AC1FC01C080D18041
:10277000C114D10409F416C15301F4E0AF0EB11C29
:10278000DC011196BC92AE9214969C92FE01319699
:102790002F019F0148E050E060E0D30112968D9137
:1027A0009C910E94D70F982EF8011482811100C1CC
:1027B0008D8191ED992E893059F58980D701ED9160
:1027C000FC910280F381E02D222D41E0632DC701B1
:1027D0000995F3018287882309F4E7C098859583DA
:1027E000682F828193810E94A60F982ED801CD92E6
:1027F000DC92882339F1D701ED91FC910480F581B9
:10280000E02DD3011A966C91C7010995F301128648
:10281000892DE8960FB6F894DEBF0FBECDBFDF91CD
:10282000CF911F910F91FF90EF90DF90CF90BF90CD
:10283000AF909F908F907F906F905F904F903F9060
:102840002F900895811088C0950142E0F3016285C0
:10285000828193810E943E08982E8111D9CF1F92C8
:102860001F925F924F921F9288E08F9358E0852EBF
:10287000912CB12CA12C69E2C62EE12C06E020EAB5
:1028800040E0F3016285828193810E940F0E982EB1
:102890000F900F900F900F900F900F908111B8CF65
:1028A0008B81D3011B968C931B97820120E048E01B
:1028B00050E01A966C911A9712968D919C910E94F5
:1028C0002B11982E8111A4CF4B815C8120E0F30164
:1028D0006285828193810E942B11982E811198CF5D
:1028E000498150E08E010F5D1F4F20E0D3011A9601
:1028F0006C911A9712968D919C910E942B11982E93
:10290000811186CF1F921F921F921F921F921F92BA
:10291000912C812CC12CEE8009E020E040E0F301F5
:102920006285828193810E940F0E982E0F900F90E6
:102930000F900F900F900F9081116ACF11E0D3018B
:102940001B968C911B978117D0F0412F68E0C30133
:102950000E94A9111F5FF3CF482D413208F040E2D9
:1029600050E09201D3011A966C911A9712968D91AC
:102970009C910E94D70F982E81114ACF65CF129655
:10298000ED91FC911397EA58FF4F8081846080831A
:1029900081E050968C933CCF49ED942E39CF36EDA3
:1029A000932E36CF27ED922E33CF84ED982E30CF55
:1029B000D182C0822DCF2F923F924F925F926F9221
:1029C0007F928F929F92AF92BF92CF92DF92EF92BF
:1029D000FF920F931F93CF93DF93CDB7DEB7C2580B
:1029E000D1090FB6F894DEBF0FBECDBFDC0116963D
:1029F0003C9119ED311114C0B22E942EA62E3C013B
:102A0000FC01C480D580D601ED91FC910190F0814C
:102A1000E02D60E0C60109952C010097E1F416ED68
:102A2000812FCE57DF4F0FB6F894DEBF0FBECDBF5C
:102A3000DF91CF911F910F91FF90EF90DF90CF909A
:102A4000BF90AF909F908F907F906F905F904F90CE
:102A50003F902F900895FC0100811181011511050F
:102A600009F4A3C11301F5E22F0E311CDC0111960C
:102A70003C922E921496BC929E0126593F4F48E0FC
:102A800050E060E0F301848195810E94D70FF82E19
:102A900081118DC1AB96FFACAB97D2010D931C9306
:102AA000D601ED91FC910280F381E02D292D40E0CB
:102AB0006A2DC6010995F301868314ED882309F474
:102AC000AFCFE2969FADE29796A3682F8481958160
:102AD0000E94A60F182FD601ED91FC91D2011496F9
:102AE0001C92882359F00480F581E02DD3011696BD
:102AF0006C91C6010995F301168292CF0190F08185
:102B0000E02DD30116966C91C6010995009709F442
:102B100086CFFC01B482F110A8C0E4968EAD9FADC3
:102B2000E497F301E35AFF4F91838083E6968EADDD
:102B30009FADE697329791838083EC96FFADEC973B
:102B4000C058DF4FF883C058D040910141E0D30115
:102B500016966C91169714968D919C910E943E0842
:102B6000F82E811197C02E01B1E44B0E511CF301D8
:102B70003296CF57DF4FF983E883C158D040C20166
:102B80004096EE969FAF8EAFEE97C058DF4FB8815C
:102B9000C058D040FB1609F489C08AE291E0F201E6
:102BA00091838083CF57DF4FA881B981C158D0402E
:102BB000B383A28314821186128615861786168621
:102BC00010A211A212A210A6EE968EAD9FADEE97A6
:102BD000968385839087878394878387D301149610
:102BE0000D90BC91A02DC258DF4FB983A883CE575A
:102BF000D040F301D6808E010F5F1F4F2F2D49E08B
:102C000050E06D2DCD010E942B1181114DC08B80A4
:102C10009C805F924F921F930F93C401A1E48A1688
:102C2000910410F080E490E09F938F93B12CA12C3D
:102C300032E0C32EEF2C06E020E840E06D2DC258B4
:102C4000DF4F88819981CE57D0400E940F0E0F90A0
:102C50000F900F900F900F900F90811125C0F301EE
:102C6000868D823018F5F39490CF4F2D433108F0C4
:102C700042E150E09E0126593F4FD30116966C91D8
:102C8000169714968D919C910E94D70FF82E882349
:102C900009F443CFD301ED91FC910480F581E02D3F
:102CA000C30109951F2DBCCEF82EF4CFD3015E963B
:102CB0004C915E9711ED423008F4B2CE9101169618
:102CC0006C91169714968D919C910E943E081F92CC
:102CD0001F921F921F921F921F92912C812CB12C38
:102CE000A12CC12CF301E48C09E020E040E06681D6
:102CF000848195810E940F0E182F0F900F900F90D6
:102D00000F900F900F9081114EC0D12CD3015D9682
:102D10008C915D97D816E0F58D2D90E0FC017296B0
:102D2000EE0FFF1FEE0FFF1FE60DF71D2081211193
:102D300002C0D394EBCFFC01EE0FFF1FEE0FFF1F7D
:102D4000E60DF71DEA5BFF4F80818770A82EB12C3E
:102D50001F921F921F921F921F921F92912C812CE3
:102D6000C12CE12C0AE021E240E0F301668184817C
:102D700095810E940F0EF82E0F900F900F900F90DC
:102D80000F900F908823A9F2F5E08F1791F282CF70
:102D9000ED91FC910688F789E02DC301099581E04A
:102DA000F30184A33DCEF82E75CF17ED39CEF20195
:102DB000118300836FCFFC014481558180918C0287
:102DC00090918D028417950780F0809188029091F0
:102DD0008902009751F0608171816115710529F0B8
:102DE0000E946D2321E0892B09F020E0822F0895B5
:102DF000FC0180819181009711F00C940B220895C1
:102E00000E9451230F931F93CF93DF93EC0188818E
:102E10009981009759F02A813B812617370730F0B6
:102E200081E0DF91CF911F910F9108958B016F5F2A
:102E30007F4F0E949422009759F0998388831B83C7
:102E40000A832C813D81232B59F7FC011082E8CFA6
:102E500080E0E7CFEF92FF920F931F93CF93DF9322
:102E6000EC017B01198218821B821A821D821C824E
:102E7000FB0101900020E9F731978F01061B170B2A
:102E8000B8010E94021728813981811113C02115D0
:102E9000310519F0C9010E940B22198218821D8286
:102EA0001C821B821A82DF91CF911F910F91FF909C
:102EB000EF9008951D830C83B701C901DF91CF9175
:102EC0001F910F91FF90EF900C9466231F920F9229
:102ED0000FB60F9211242F933F938F939F93AF932D
:102EE000BF938091020290910302A0910402B091DD
:102EF00005023091010223E0230F2D3758F501968A
:102F0000A11DB11D20930102809302029093030240
:102F1000A0930402B09305028091060290910702EB
:102F2000A0910802B09109020196A11DB11D8093E4
:102F3000060290930702A0930802B0930902BF9182
:102F4000AF919F918F913F912F910F900FBE0F9056
:102F50001F90189526E8230F0296A11DB11DD2CF10
:102F60001F920F920FB60F9211248F939F9380910F
:102F7000E1009091E100937F9093E10083FF0FC007
:102F80001092E90091E09093EB001092EC0092E334
:102F90009093ED0010920B0298E09093F00082FF66
:102FA00022C093E09093E9009091F200992319F0E8
:102FB0009AE39093E8009091F401992341F0909165
:102FC000F40191509093F401911101C05D9A909198
:102FD0000A02992341F090910A02915090930A02BB
:102FE000911101C0289A84FF18C08091E2008E7E62
:102FF00081608093E2008091E1008F7E8093E10008
:103000008091F5018E7E80618093F5019F918F9173
:103010000F900FBE0F901F90189580FFF7CF8091F3
:10302000E2008E7E80618093E2008091E1008E7EDE
:103030008093E1008091F5018E7E8160E5CF1F9243
:103040000F920FB60F921124CF92DF92EF92FF9260
:103050000F931F932F933F934F935F936F937F93A0
:103060008F939F93AF93BF93EF93FF93CF93DF9390
:10307000CDB7DEB76C97DEBFCDBF1092E90080916F
:10308000E80083FF25C068E0CE0145960E94090351
:1030900082EF8093E8008D8987FF39C09091E80026
:1030A00090FFFCCF982F907609F034C19E894F890C
:1030B000588D2F89F88C911131C0803861F580913D
:1030C000F6018093F1001092F1008EEF8093E800FA
:1030D0006C960FB6F894DEBF0FBECDBFDF91CF91D7
:1030E000FF91EF91BF91AF919F918F917F916F91E0
:1030F0005F914F913F912F911F910F91FF90EF9012
:10310000DF90CF900F900FBE0F901F9018959EEFFD
:103110009093E800C7CF1092F100D5CF913059F4C9
:103120008111D3CF4130510581F68091F6018D7F19
:103130008093F601CACF933049F48111C6CF413054
:10314000510519F68091F6018260F2CF953041F475
:103150008091E80080FFFCCF20682093E300B5CF8A
:10316000963009F0A9C00B8D1C8D22E01092E90069
:103170001092F2011092F101F2122EC01092F001A1
:103180001092EF010E942A031F8299E09983FA822C
:1031900091E09E8390EA98879AEF99872091F101B8
:1031A0003091F201275F3F4F3C832B838D83109238
:1031B000E9001092F2011092F1011093F0010093D6
:1031C000EF0149E050E0BE016F5F7F4F80E00E9459
:1031D00038020E942A0379CF1093F0010093EF0187
:1031E0000E941603DC0112960D911C910115110528
:1031F00009F451C1D801ED91FC910480F581E02DD5
:10320000BE016B5E7F4FC8010995009709F03EC172
:10321000F80100851185EACFF3E0FF120EC08F8917
:10322000882309F440C0823061F440E860E18CE119
:1032300091E00E94511A811148CF81E28093EB0006
:1032400047CF813029F440E86BE080E191E0F1CF95
:10325000833099F70E941603DC011296ED90FC90E2
:103260008E010F5F1F4F6801E114F10479F0D7015F
:10327000ED91FC910680F781E02DB801C701099519
:10328000080F111DF701E084F184EECFD8011C92E4
:10329000F60101900020E9F73197BF016C197D0913
:1032A00040E0C601C6CF6AEF70E0FB01449150E0F8
:1032B00080E80E94380209CF973009F4BECF9830D9
:1032C00021F481E08093F10000CF993009F0FDCE28
:1032D000837009F0B2CFE4E1F1E081E031E096E300
:1032E0002191222371F08093E9003093EB00DF01FC
:1032F00011972C912093EC009093ED008F5F873015
:1033000079F78EE78093EA001092EA008F89809324
:103310000B02DBCE8B8D9C8D1092E9001092F20196
:103320001092F1019093F0018093EF01898D81114A
:1033300092C08E899D89913A49F4813209F07DCFFE
:1033400047E050E064E071E080E0B3CF913209F0F3
:1033500074CF833269F48F89988DB0E0A0E08093B8
:10336000000190930101A0930201B0930301ADCE3F
:10337000803269F48091E80082FFFCCF67E084E04E
:1033800091E00E9409038BEF8093E8009ECE823289
:1033900009F09BCE8F8980930B01EEEFFFE78591BB
:1033A00094918B3F9C4D51F1E0E0F8E08091040155
:1033B00090910501A0910601B0910701803B9440D6
:1033C000A105B105F1F480910B0180FD1AC0EE3F1B
:1033D0008AE0F80789F587E797E7918380838091F2
:1033E00060008093F30188E19BE00FB6F894A89504
:1033F000809360000FBE9093600067CEEEEFFAE01E
:10340000D5CF808191818737974709F05ECEA89507
:10341000809160008861809360008091F3018093C7
:103420006000EE3F2AE0F20789F08091FE0A909159
:10343000FF0A9183808349CE8081918187379807E5
:1034400051F29093FF0A8093FE0AC5CF1092FF0AB3
:103450001092FE0A3ACE0E941603DC0112960D91DC
:103460001C910115110509F4E8CED801ED91FC91EC
:103470000190F081E02DBE016B5E7F4FC801099580
:10348000811123CEF80100851185EBCF181619069E
:103490000CF41BCED2CEF1E0FF12BECE6EEF70E088
:1034A00004CFEF92FF920F931F93CF93DF93F82EE9
:1034B000192FE62E042F81E0860F880F0E940A0242
:1034C00083E00E940A02CF2DD12FEC0EFD2EF11CBD
:1034D000CE15DF05B9F007FF13C0FE0184910E94ED
:1034E0000A02182F80E00E940A028123219681118E
:1034F000EFCFDF91CF911F910F91FF90EF90089543
:103500008881EDCF81E0F5CF6F927F928F929F926D
:10351000AF92BF92CF92DF92EF92FF920F931F93E1
:10352000CF93DF93EC01842F6C8F4D8D70E060E0C2
:10353000A82EB12C822E912C602E712C641770F560
:103540006530710559F1DB01AA0FBB1FAA0FBB1F24
:10355000FE01EA0FFB1FEA5BFF4F9081392F3770A6
:103560003A151B0409F087C0392F369536953695E4
:1035700037703815190409F07EC092959695969586
:1035800093709615170409F076C06E0196E4C90E83
:10359000D11CCA0EDB1EC114D104F9F4453008F069
:1035A0005BC0A4E04A9FA00111246E01B6E4CB0EDB
:1035B000D11CC40ED51E2770220F220F220F982F68
:1035C0009770292B902F9295990F990F907C292B0A
:1035D000F60120839D8D9F5F9D8FD70113969C914F
:1035E0001397937010E0933029F412969C9112E097
:1035F00097FD11E0402F682FE881F981068CF78D47
:10360000E02DCE010995882339F1112329F18E8D02
:103610008B3010F5282F30E0F901EE0FFF1FE20F7D
:10362000F31FEC0FFD1FD70112969C9112979F700C
:1036300095A314969C91149796A394E097A3C10E1A
:10364000D11CF601818316968C919BA1981708F4E2
:103650008BA38E8D8F5F8E8FDF91CF911F910F91F6
:10366000FF90EF90DF90CF90BF90AF909F908F90A2
:103670007F906F9008956F5F7F4F60CFEF92FF92C2
:103680000F9302970E94841A0F91FF90EF90089574
:10369000CF93DF931092100210920F0288EE93E006
:1036A000A0E0B0E08093110290931202A093130265
:1036B000B093140280E391E090930E0280930D0288
:1036C0008FEF9FEF90931A02809319021092860257
:1036D0008EE491E0909385028093840280917C0235
:1036E000811113C0109277021092760286EA91E05F
:1036F00090937902809378028BE290E090937B0222
:1037000080937A0281E080937C0280916E02811125
:103710002AC0C1E0C0936102C093620287E692E0D2
:103720009093640280936302109266021092650285
:1037300082E491E090935E0280935D0210926902B0
:103740001092680210926B0210926A02C0936C028F
:10375000C0936D0281EC809367020E9416030E9461
:103760006101C0936E02E0916802F09169023097A6
:1037700009F035C186E792E0909369028093680270
:1037800080916A0290916B0220917A0230917B02C3
:10379000820F931F90936B0280936A0280EC91E0FA
:1037A0009093FF028093FE021092060381E08093C3
:1037B00007031092080380E093E090930503809341
:1037C00004031092000388E0809301038CE380934C
:1037D000020310920303EEEFF2E091E020E033E009
:1037E00015869687178634872387359683E0E934D4
:1037F000F807B1F71092740381E1809387022AEAF7
:1038000031E03093EE022093ED022EEF32E0309360
:10381000F0022093EF021092FD021092F10288E074
:103820008093F2022CE32093F3029093F4028093AE
:10383000F50284E08093F6021092F7021092F802EB
:103840001092F9021092FA021092FB021092FC02FE
:10385000A4E5B3E0FD0190E080E021913191232BBC
:1038600009F0C6C0880F991FFC01EC5AFC4F8DEE81
:1038700092E0918380838EEF92E090939302809305
:10388000920284E591E090938F0280938E0288E704
:1038900091E090939102809390021092AD02109269
:1038A000AE021092AF021092B0021092B1021092CA
:1038B000B2021092E80210929502109297021092B2
:1038C00096021092980210929A0210929902109207
:1038D0009B0210929D0210929C0210929E021092E6
:1038E000A00210929F021092A1021092A3021092C5
:1038F000A2021092A4021092A6021092A5021092A7
:10390000A7021092A9021092A802E5EDF2E090E061
:1039100080E0EC01CC0FDD1FCC0FDD1FCC52DD4F62
:10392000288128732883108211820196349685306D
:10393000910579F7CEE8D2E090E080E01DA2582F03
:1039400028E0811120E02EA3BC01660F771F9B01A8
:10395000280F391F2B543D4FF90140814E7F4D7F79
:1039600040833FE0511131E0FB01E80FF91FEB54B8
:10397000FD4F330F330F20812370232B20830196BB
:1039800023968B309105D1F681E08093AC021092A2
:10399000AB021092AA0290E080E02D913D91232B82
:1039A00069F5880F991FFC01EC5AFC4F8EE892E0F4
:1039B000918380838EE791E090938F0280938E02B3
:1039C00084EA91E0909391028093900267ED71E018
:1039D00088E892E0DF91CF910C942A17FC01808156
:1039E00091810097D9F786E792E091838083C8CED2
:1039F00001968031910509F030CF3DCF019680319D
:103A0000910559F6D7CFCF93DF93CDB7DEB728977F
:103A10000FB6F894DEBF0FBECDBF789484B5826038
:103A200084BD84B5816084BD85B5826085BD85B562
:103A3000816085BD80916E00816080936E001092E0
:103A4000810080918100826080938100809181005B
:103A500081608093810080918000816080938000EC
:103A600080919100826080939100809191008160AB
:103A7000809391008091900081608093900080916C
:103A8000C10084608093C1008091C10082608093F6
:103A9000C1008091C10081608093C1008091C3000A
:103AA00081608093C3008091C00082608093C000D9
:103AB0008091C20081608093C20080917A0084600E
:103AC00080937A0080917A00826080937A0080915E
:103AD0007A00816080937A0080917A008068809378
:103AE0007A0010920B021092F6011092F50180916B
:103AF000D70081608093D70080EA8093D80089B591
:103B0000806189BD89B5826089BD09B400FEFDCFA1
:103B100061E070E080E090E00E94CC018091D800EC
:103B20008F7C80618093D8008091E000807F8093BB
:103B3000E0008091E1008E7E8093E1008DE0809333
:103B4000E200559A209A8FEF9FEF90931A0280938C
:103B500019021092860240E060E080E00E940E05AB
:103B6000269A0E945C081FB7F8948091F701811192
:103B70005AC049E751E0FA01949128E931E0F9018E
:103B80008491E92FF0E0EE0FFF1FE65AFE4FA5915A
:103B9000B4919C91892309F037C0EEE3F1E0949150
:103BA000F9012491FA018491882309F42DC0992305
:103BB000E9F091509F30D0F4E92FF0E0EE51F24E51
:103BC0000C946921AF1EB31EF11DA71EAB1EF61D7E
:103BD000F61DF61DB61EBC1EC01EC41ECA1EF61D56
:103BE000CE1E909180009F7790938000E82FF0E0A8
:103BF000EE0FFF1FE45BFE4FA591B4918FB7F894D1
:103C00009C91292B2C938FBF81E10E9418018CB5C8
:103C100080618CBD8CB580648CBD8FE00E941801E2
:103C200080E10E9418018091F7018F5F8093F70176
:103C30001FBF209A289A259868E188E80E94B60953
:103C400060E288E70E94B60960E088E70E94B60952
:103C500010E000E088E60E947C0A0F5F1F4F80FFA3
:103C6000A3C061EC88ED0E94B60960E680ED0E9479
:103C7000B60964E088EE0E94B60988EE0E947C0ACC
:103C800082FFFBCF0E94580B60E288EC0E94B609CD
:103C900061E080E80E94B60968EC70E080E090E0A6
:103CA0000E94CC014CE051E060E08EE892E00E947E
:103CB00022071F921F921F921F921F921F92912CF8
:103CC000812CB12CA12CC12CEE24E3940BE021E239
:103CD00040E06091940280919202909193020E9440
:103CE0000F0E0F900F900F900F900F900F908E016E
:103CF0000F5F1F4F3E0127E0620E711C38ED232E2F
:103D000031E0332E20E0422E20E0522E83B1382FB6
:103D10003072F32E85FD0DC088EC0E947C0A85FF71
:103D200004C00E94580B90E2F92E6F2D88EC0E947F
:103D3000B60980910C02813009F48EC008F490C05D
:103D40008230B9F1833009F493C0B12C49C090910D
:103D500080009F7D49CF90918000977F45CF94B59B
:103D60009F7794BD43CF94B59F7DFBCF90919000FA
:103D70009F77909390003ACF909190009F7DF9CFDC
:103D800090919000977FF5CF9091C0009F7790938E
:103D9000C0002CCF9091C0009F7DF9CF9091C200C0
:103DA000977F9093C20022CF0F3F100709F052CFA8
:103DB000FFCFB12C80918702807F803189F40E94EF
:103DC000FE0168537F4F8F4F9F4F6093F8017093B0
:103DD000F9018093FA019093FB0180E280938702BE
:103DE00084E5C82E83E0D82E7601D7018D919D9170
:103DF0007D01009739F0DC01ED91FC910680F7819F
:103E0000E02D0995B4E7EB16B3E0FB0671F780915E
:103E10008702803409F498C070F5803209F47EC0BE
:103E2000803309F48BC0813109F043C010927403D0
:103E3000F601819191916F01009739F0DC01ED91CC
:103E4000FC910480F581E02D0995EC14FD0481F7C7
:103E500082E1809387022DC083E18093870275CF32
:103E600080918702807F803109F46FCF81E1F5CFA7
:103E7000BB24B3949FCF813509F475C0803809F411
:103E800085C08035B1F488EC0E947C0A86FF11C0A1
:103E900081E5809387020E94FE016C5E7F4F8F4F09
:103EA0009F4F6093F8017093F9018093FA0190930A
:103EB000FB018DE092E00E94D903892B09F49EC199
:103EC0008DE092E00E9497038D3099F38A3009F0DB
:103ED0006DC1A0908802B0908902A114B10449F08C
:103EE000E0908C02F0908D026501E114F10409F07C
:103EF0005EC066EC71E0C8010E942A17C8010E94EA
:103F0000DB16F82EC8010E94F816FF2009F48EC0B7
:103F100081E0809300020E945E08EFC00E94FE01D3
:103F2000C090F801D090F901E090FA01F090FB0107
:103F30006C197D098E099F0997FDBBCF61E088EE62
:103F40000E94B60980E485CF88EE0E947C0A80FD3D
:103F5000B0CF88ED0E947C0A682F686088ED0E94CF
:103F6000B60980E576CF0E94FE01C090F801D0909E
:103F7000F901E090FA01F090FB016C197D098E09BE
:103F80009F0997FD96CF80E8809387022B2D40E014
:103F900060E08EEF92E00E94FD0F882329F0823DC1
:103FA00009F487CF80EA55CF80E953CF64014601F9
:103FB000BFEF8B1A9B0AF6018081082E000C990B2B
:103FC0000E942621892B91F7F1E0EF1AF108EA0C03
:103FD000FB1CD7018C91082E000C990B0E94262106
:103FE000892B39F0EC14FD0420F0B1E0EB1AF10854
:103FF000F0CFEFEFEE1AFE0AA7014C195D095093BE
:104000008D0240938C02AC14BD0420F4B601C501AE
:104010000E945623E0918802F091890280918C02DF
:1040200090918D02E80FF91F108263CF6DEC71E063
:10403000C8010E942A17C8010E94DB16F82EC80189
:104040000E94F816FF2019F01092000264CF8091B0
:104050000002882309F451C065ED71E0C8010E9497
:104060002A17C8010E94DB16F82EC8010E94F81614
:10407000FF2009F4CAC018861F821A8219821F9372
:104080000F937F926F923F922F928091880290912E
:10409000890202969F938F930E947B230FB6F89418
:1040A000DEBF0FBECDBF029741F52091FE013091DA
:1040B000FF018F819885820F931F9093FF0180935A
:1040C000FE016091FC017091FD0129813A81620F2E
:1040D000731F7093FD016093FC01009719F4611543
:1040E000710559F040E00E940E051092FF011092F8
:1040F000FE011092FD011092FC0170E060E088E882
:1041000092E00E9402172091880230918902811169
:1041100043C02115310519F0C9010E940B221092EC
:1041200089021092880210928D0210928C021092D5
:104130008B0210928A02BDCE8FEF9FEF9A83898304
:104140001F930F93AAEDB1E0BF93AF9380918802C4
:104150009091890201969F938F930E947B2389817E
:104160009A810F900F900F900F900F900F908130C9
:10417000910521F481E00E943805BFCF892B21F4FD
:1041800081E00E942A05B9CF81E00E9438058BECBE
:1041900097E00197F1F7F4CF10928D0210928C0204
:1041A00067ED71E0C9010E94662383CEE0908C0226
:1041B000F0908D02F0E4EF16F10408F07ACE8983D6
:1041C0001A822FEFE21AF20AB70188E892E00E9401
:1041D0000217882309F46DCE20918802309189025C
:1041E00080918C0290918D02B801820F931F0E94E2
:1041F0006623F0928D02E0928C025BCE4114510452
:1042000009F484CD0E9400007DCD6EED71E0C801FF
:104210000E942A17C8010E94DB16F82EC8010E94CE
:10422000F816F11089CF60EE71E0C8010E942A17DC
:10423000C8010E94DB16F82EC8010E94F816F11082
:104240006ACE5BCF88E892E00C94F81691110C943A
:104250002F21803219F089508550C8F70895992789
:10426000882708952F923F924F925F926F927F928C
:104270008F929F92AF92BF92CF92DF92EF92FF9276
:104280000F931F93CF93DF93CDB7DEB7CA1BDB0B22
:104290000FB6F894DEBF0FBECDBF09942A883988C7
:1042A00048885F846E847D848C849B84AA84B984CE
:1042B000C884DF80EE80FD800C811B81AA81B981DA
:1042C000CE0FD11D0FB6F894DEBF0FBECDBFED01EE
:1042D0000895EE0FFF1F0590F491E02D09940F93C0
:1042E0001F93CF93DF938230910510F482E090E02A
:1042F000E0917703F091780330E020E0B0E0A0E0B7
:10430000309799F42115310509F44AC0281B390B5F
:1043100024303105D8F58A819B816115710589F1B9
:10432000FB0193838283FE0111C040815181028190
:10433000138148175907E0F04817590799F4109767
:1043400061F012960C93129713961C933296CF013C
:10435000DF91CF911F910F910895009377031093F0
:104360007803F4CF2115310551F04217530738F087
:10437000A901DB019A01BD01DF01F801C1CFEF0105
:10438000F9CF9093780380937703CDCFFE01E20FAE
:10439000F31F819391932250310939832883D7CF1A
:1043A0002091750330917603232B41F420911C0159
:1043B00030911D01309376032093750320911A01EB
:1043C00030911B012115310541F42DB73EB74091C5
:1043D0001E0150911F01241B350BE0917503F091D4
:1043E0007603E217F307A0F42E1B3F0B28173907BB
:1043F00078F0AC014E5F5F4F2417350748F04E0F41
:104400005F1F5093760340937503819391939FCFE1
:10441000F0E0E0E09CCFCF93DF930097E9F0FC0160
:10442000329713821282A0917703B0917803ED0145
:1044300030E020E01097A1F420813181820F931F9A
:1044400020917503309176032817390709F061C070
:10445000F0937603E0937503DF91CF910895EA011D
:10446000CE17DF07E8F54A815B819E0141155105B2
:10447000B1F7E901FB83EA8349915991C40FD51F34
:10448000EC17FD0761F4808191810296840F951FDE
:10449000E90199838883828193819B838A83F0E0F9
:1044A000E0E012968D919C9113970097B9F52D91AC
:1044B0003C911197CD010296820F931F20917503B5
:1044C000309176032817390739F6309751F5109255
:1044D000780310927703B0937603A0937503BCCF53
:1044E000D383C28340815181840F951FC817D90798
:1044F00061F44E5F5F4F88819981480F591F518346
:1045000040838A819B81938382832115310509F041
:10451000B0CFF0937803E09377039ECFFD01DC01E9
:10452000C0CF13821282D7CFB0E0A0E0EAE9F2E276
:104530000C9434218C01009751F4CB010E946F211F
:104540008C01C801CDB7DEB7E0E10C945021FC012D
:10455000E60FF71F9C0122503109E217F30708F418
:104560009DC0D901CD91DC911197C617D70798F05E
:10457000C530D10530F3CE0104978617970708F3AD
:10458000C61BD70B2297C193D1936D937C93CF0118
:104590000E940B22D6CF5B01AC1ABD0A4C018C0ED7
:1045A0009D1EA0917703B0917803512C412CF12CE2
:1045B000E12C109731F58091750390917603881561
:1045C000990509F05CC04616570608F058C080915E
:1045D0001A0190911B01009741F48DB79EB740914D
:1045E0001E0150911F01841B950BE817F90708F075
:1045F00055C0F0937603E0937503F90171836083EE
:10460000A0CF8D919C91119712966C901297139652
:104610007C901397A815B90559F56C0142E0C40EBA
:10462000D11CCA14DB0420F1AC014A195B09DA0180
:104630001296159780F06282738251834083D9016C
:104640006D937C93E114F10471F0D7011396FC9300
:10465000EE93129776CF22968C0F9D1FF9019183CE
:104660008083F301EFCFF0937803E093770369CF72
:104670004816590608F42C017D01D3019ACFCB01CD
:104680000E946F217C01009749F0AE01B8010E94A1
:104690005623C8010E940B22870153CF10E000E08F
:1046A00050CF81E090E0F8940C948326FB01DC016C
:1046B00002C001900D9241505040D8F70895DC019E
:1046C00001C06D9341505040E0F70895FB01DC01BB
:1046D00001900D920020E1F70895FB01DC014150AB
:1046E000504030F08D910190801919F40020B9F7F5
:1046F000881B990B0895AEE0B0E0E1E8F3E20C947A
:10470000422185E08C838B899C899A838983AE01C1
:10471000495E5F4F6D897E89CE0101960E941F25FB
:104720002E96E2E00C945E2120FD09C0FC0123FDE1
:1047300005C022FF02C073836283518340830895C2
:1047400044FD17C046FD1DC0DB01FC01AA0FBB1FC5
:10475000EE1FFF1F1094D1F76A0F7B1F8E1F9F1F44
:10476000660F771F881F991F620F711D811D911D94
:10477000089533E0660F771F881F991F3150D1F7D6
:10478000F3CF34E0F7CF0F931F93CF93DF938C01D8
:10479000C8010E942F26EC0197FD08C00E94262127
:1047A000892BB1F7B801CE010E946B26CE01DF91B3
:1047B000CF911F910F9108958F929F92AF92BF92C8
:1047C000EF92FF920F931F93CF93DF938C01D62F1D
:1047D0007A01B22E0E942F269C0133272B323105FD
:1047E00029F02D323105A9F46894B7F8D15061F45D
:1047F00080E0DF91CF911F910F91FF90EF90BF90DC
:10480000AF909F908F900895C8010E942F2697FD2A
:10481000EFCFCB2DCD7F2B2D2073F9F48033E9F42E
:10482000AA24AA94AD0E89F0C8010E942F2697FDF4
:104830000CC0282F2F7D283561F4C264D25029F096
:10484000C8010E942F2697FF08C0812C912C54018B
:104850001BC0B6FE2BC0C260DA2D812C912C5401F6
:1048600020ED280F283028F1C4FD09C02A3008F1B6
:10487000C6FF05C02F7D3FEE320F3630C8F0B801BD
:104880000E946B26C1FFB4CFC7FF08C0B094A094AC
:1048900090948094811C911CA11CB11C2C2FB501FB
:1048A000A401C7010E94942381E0A3CFC261D4CFA9
:1048B00027504C2FC501B4010E94A0234B015C017D
:1048C000C260D15009F3C8010E942F2697FFC8CFBC
:1048D000D9CFA0E2B0E0EFE6F4E20C9437215C011E
:1048E000962E7A01CE0101966C0180E2F6011192BA
:1048F0008A95E9F7F501B381890130E020E0712C58
:10490000812CA0E041E050E0F801B3FD8591B3FFB8
:104910008191982F8F01811107C010E000E0C8013C
:10492000A096EDE00C9453218E3519F42115310534
:1049300041F1A21713064CF48D3549F18D3229F45B
:10494000811006C0882483941DC0882009F464C0A7
:10495000E92FE695E695E695EC0DFD2DF11D892FE5
:104960008770BA0101C0660F8A95EAF78081682BCB
:104970006083791651F0971510F49F5FE9CF91503D
:10498000E7CFA1E02F5F3F4FBFCF812CFBCF882027
:1049900019F08E8180628E83AA2359F0F6019E0160
:1049A0002F5D3F4F8081809580833196E217F3071A
:1049B000C9F788248394C5010E942F2697FD16C04D
:1049C000E82FE695E695E695EC0DFD2DF11D20818D
:1049D00030E0AC014770552702C0359527954A95C0
:1049E000E2F720FD06C0B5010E946B26882069F021
:1049F00094CFE114F10429F0F7018083C7010196F7
:104A00007C019A94812C9110D6CFE114F10409F421
:104A100086CFF701108283CFE82FE695E695E695DD
:104A2000EC0DFD2DF11D982F9770BA0101C0660F96
:104A30009A95EAF79081692B6083782EA3CFB0E036
:104A4000A0E0E5E2F5E20C9435216C01EB015A019E
:104A5000FC0117821682512CF601E380FE01E3FC73
:104A60008591E3FE8191182FEF018823E9F090E012
:104A70000E942621892B21F0C6010E94C323ECCF7E
:104A8000153241F4FE01E3FC1591E3FE1191EF01B3
:104A9000153269F4C6010E942F2697FD8EC01817A3
:104AA000D9F2B6010E946B26852D90E08AC000E005
:104AB0001A3231F4E3FC1591E3FE1191EF0101E0AC
:104AC000F12C20ED210F2A3048F101FF37C0FF20E3
:104AD00059F31836B1F11C3609F43DC0112321F306
:104AE000612F70E08CEA90E00E942426892BE1F28D
:104AF000912C812C00FD06C0F50180809180C501BC
:104B000002965C011E3679F5F6014681578170E008
:104B100060E0202FC4010E9494239ECF02606F2D7D
:104B200070E090E080E040E20E94A023F62EFE01BB
:104B3000E3FC1591E3FE1191EF01C3CFFF24FA943A
:104B4000C8CFFE01E3FC1591E3FE1191EF01183689
:104B500009F0C4CF08600460FE01E3FC1591E3FE98
:104B60001191EF01BBCF1336C1F401FD02C0FF2448
:104B7000F394C6010E942F2697FD1FC08114910453
:104B800029F0F4018083C40101964C01FA94F110DC
:104B9000F0CF00FD61CF53945FCF1B35B9F49E0178
:104BA000A4016F2DC6010E946924EC01892B89F7AD
:104BB000F6018381807309F477CF8FEF9FEF511057
:104BC00073CFCDB7DEB7EFE00C945121C6010E9440
:104BD000C32397FDF2CF1F36A9F130F4143641F00C
:104BE000193639F0006405C01337B9F01537D1F71D
:104BF0000062202FA4016F2DC6010E94DC238111C9
:104C0000C8CFD6CF8114910429F0F4016082C40189
:104C100001964C01FA94FF2071F0C6010E942F26E4
:104C20003C0197FD08C00E942621892B59F3B6014B
:104C3000C3010E946B268114910409F4AACFF401E8
:104C40001082A7CF0061D5CFFC010590061621F098
:104C50000020D9F7C00108953197CF010895CF936F
:104C6000DF93EC012B8120FF1AC026FF0CC02F7BA5
:104C70002B838E819F8101969F838E838A8190E012
:104C8000DF91CF91089522FF18C0E881F9818081DA
:104C9000082E000C990B009729F420622B838FEFCC
:104CA0009FEFEECF3196F983E8832E813F812F5F0E
:104CB0003F4F3F832E839927E3CFEA85FB850995F4
:104CC00097FFF3CF2B81019621F080E2822B8B831B
:104CD000E6CF80E1FBCFFB01238120FF11C026FD41
:104CE0000FC08F3F980771F082832F7D206423834C
:104CF00026813781215031093783268399270895EA
:104D00008FEF9FEF089510E0CAEED0E004C0FE01DF
:104D10000E9469212196CB3ED107C9F7F894FFCFB5
:104D2000FFFFFFFF00E10000000000002401000081
:104D300000000000C18081000000000079038000B5
:104D4000000000006A0800000000AA050000000042
:104D500071035B0392038703D9039703B503000034
:104D60000000F3036C043104160400000000B704D3
:104D700000000000DB148B09EB06340D7F098A0963
:104D800088098609840904072207820943077C09E8
:104D9000841A0017FEFF00003E1B00000000DB1419
:104DA0008B09EB06680C7F098A0988098609840942
:104DB00004072207820967097C094C097A096609F8
:104DC000FEFF00005C090000000082138B0945050E
:104DD00081126C052713880967058409000000000B
:104DE0002708D207B007454E41424C45004449537D
:104DF00041424C45004D2C0025642C2564004B009D
:024E000043006D
:00000001FF
